{
  "_format": "hh-sol-artifact-1",
  "contractName": "MediChain",
  "sourceName": "contracts/MediChain.sol",
  "abi": [
    {
      "inputs": [
        {
          "internalType": "string",
          "name": "userUlid",
          "type": "string"
        },
        {
          "internalType": "string",
          "name": "postName",
          "type": "string"
        },
        {
          "internalType": "string",
          "name": "doctor",
          "type": "string"
        },
        {
          "internalType": "uint256",
          "name": "timestamp",
          "type": "uint256"
        },
        {
          "internalType": "string",
          "name": "desc",
          "type": "string"
        },
        {
          "internalType": "bytes32[]",
          "name": "postHashes",
          "type": "bytes32[]"
        }
      ],
      "name": "createPost",
      "outputs": [],
      "stateMutability": "nonpayable",
      "type": "function"
    },
    {
      "inputs": [
        {
          "internalType": "string",
          "name": "userUlid",
          "type": "string"
        },
        {
          "internalType": "string",
          "name": "name",
          "type": "string"
        }
      ],
      "name": "createUser",
      "outputs": [],
      "stateMutability": "nonpayable",
      "type": "function"
    },
    {
      "inputs": [
        {
          "internalType": "uint256",
          "name": "postId",
          "type": "uint256"
        }
      ],
      "name": "getPost",
      "outputs": [
        {
          "internalType": "uint256",
          "name": "",
          "type": "uint256"
        },
        {
          "internalType": "string",
          "name": "",
          "type": "string"
        },
        {
          "internalType": "string",
          "name": "",
          "type": "string"
        },
        {
          "internalType": "string",
          "name": "",
          "type": "string"
        },
        {
          "internalType": "uint256",
          "name": "",
          "type": "uint256"
        },
        {
          "internalType": "bytes32[]",
          "name": "",
          "type": "bytes32[]"
        }
      ],
      "stateMutability": "view",
      "type": "function"
    },
    {
      "inputs": [
        {
          "internalType": "string",
          "name": "userUlid",
          "type": "string"
        }
      ],
      "name": "getUser",
      "outputs": [
        {
          "internalType": "string",
          "name": "",
          "type": "string"
        },
        {
          "internalType": "string",
          "name": "",
          "type": "string"
        },
        {
          "internalType": "uint256[]",
          "name": "",
          "type": "uint256[]"
        }
      ],
      "stateMutability": "view",
      "type": "function"
    },
    {
      "inputs": [],
      "name": "postCounter",
      "outputs": [
        {
          "internalType": "uint256",
          "name": "",
          "type": "uint256"
        }
      ],
      "stateMutability": "view",
      "type": "function"
    },
    {
      "inputs": [
        {
          "internalType": "uint256",
          "name": "",
          "type": "uint256"
        }
      ],
      "name": "posts",
      "outputs": [
        {
          "internalType": "uint256",
          "name": "postId",
          "type": "uint256"
        },
        {
          "internalType": "string",
          "name": "name",
          "type": "string"
        },
        {
          "internalType": "string",
          "name": "doctor",
          "type": "string"
        },
        {
          "internalType": "uint256",
          "name": "timestamp",
          "type": "uint256"
        },
        {
          "internalType": "string",
          "name": "desc",
          "type": "string"
        }
      ],
      "stateMutability": "view",
      "type": "function"
    },
    {
      "inputs": [
        {
          "internalType": "string",
          "name": "",
          "type": "string"
        }
      ],
      "name": "users",
      "outputs": [
        {
          "internalType": "string",
          "name": "userUlid",
          "type": "string"
        },
        {
          "internalType": "string",
          "name": "name",
          "type": "string"
        }
      ],
      "stateMutability": "view",
      "type": "function"
    }
  ],
  "bytecode": "0x608060405234801561001057600080fd5b5061182b806100206000396000f3fe608060405234801561001057600080fd5b506004361061007d5760003560e01c806340731c241161005b57806340731c2414610106578063689e1c031461013b57806387b162b51461016c578063931c675e146101885761007d565b806309b3d75e146100825780630b1e7f83146100a057806331feb671146100d4575b600080fd5b61008a6101a4565b6040516100979190611432565b60405180910390f35b6100ba60048036038101906100b591906110cc565b6101aa565b6040516100cb9594939291906114ca565b60405180910390f35b6100ee60048036038101906100e99190610f1e565b610378565b6040516100fd93929190611386565b60405180910390f35b610120600480360381019061011b91906110cc565b610592565b6040516101329695949392919061144d565b60405180910390f35b61015560048036038101906101509190610f1e565b610834565b60405161016392919061134f565b60405180910390f35b61018660048036038101906101819190610f5f565b61097e565b005b6101a2600480360381019061019d9190610fcb565b610af3565b005b60025481565b60016020528060005260406000206000915090508060000154908060010180546101d3906116ae565b80601f01602080910402602001604051908101604052809291908181526020018280546101ff906116ae565b801561024c5780601f106102215761010080835404028352916020019161024c565b820191906000526020600020905b81548152906001019060200180831161022f57829003601f168201915b505050505090806002018054610261906116ae565b80601f016020809104026020016040519081016040528092919081815260200182805461028d906116ae565b80156102da5780601f106102af576101008083540402835291602001916102da565b820191906000526020600020905b8154815290600101906020018083116102bd57829003601f168201915b5050505050908060030154908060040180546102f5906116ae565b80601f0160208091040260200160405190810160405280929190818152602001828054610321906116ae565b801561036e5780601f106103435761010080835404028352916020019161036e565b820191906000526020600020905b81548152906001019060200180831161035157829003601f168201915b5050505050905085565b60608060606000808560405161038e9190611338565b908152602001604051809103902060000180546103aa906116ae565b905014156103ed576040517f08c379a00000000000000000000000000000000000000000000000000000000081526004016103e490611412565b60405180910390fd5b600080856040516103fe9190611338565b90815260200160405180910390209050806000018160010182600201828054610426906116ae565b80601f0160208091040260200160405190810160405280929190818152602001828054610452906116ae565b801561049f5780601f106104745761010080835404028352916020019161049f565b820191906000526020600020905b81548152906001019060200180831161048257829003601f168201915b505050505092508180546104b2906116ae565b80601f01602080910402602001604051908101604052809291908181526020018280546104de906116ae565b801561052b5780601f106105005761010080835404028352916020019161052b565b820191906000526020600020905b81548152906001019060200180831161050e57829003601f168201915b505050505091508080548060200260200160405190810160405280929190818152602001828054801561057d57602002820191906000526020600020905b815481526020019060010190808311610569575b50505050509050935093509350509193909250565b60006060806060600060606000600160008981526020019081526020016000206000015414156105f7576040517f08c379a00000000000000000000000000000000000000000000000000000000081526004016105ee906113f2565b60405180910390fd5b60006001600089815260200190815260200160002090508060000154816001018260020183600401846003015485600501848054610634906116ae565b80601f0160208091040260200160405190810160405280929190818152602001828054610660906116ae565b80156106ad5780601f10610682576101008083540402835291602001916106ad565b820191906000526020600020905b81548152906001019060200180831161069057829003601f168201915b505050505094508380546106c0906116ae565b80601f01602080910402602001604051908101604052809291908181526020018280546106ec906116ae565b80156107395780601f1061070e57610100808354040283529160200191610739565b820191906000526020600020905b81548152906001019060200180831161071c57829003601f168201915b5050505050935082805461074c906116ae565b80601f0160208091040260200160405190810160405280929190818152602001828054610778906116ae565b80156107c55780601f1061079a576101008083540402835291602001916107c5565b820191906000526020600020905b8154815290600101906020018083116107a857829003601f168201915b505050505092508080548060200260200160405190810160405280929190818152602001828054801561081757602002820191906000526020600020905b815481526020019060010190808311610803575b505050505090509650965096509650965096505091939550919395565b60008180516020810182018051848252602083016020850120818352809550505050505060009150905080600001805461086d906116ae565b80601f0160208091040260200160405190810160405280929190818152602001828054610899906116ae565b80156108e65780601f106108bb576101008083540402835291602001916108e6565b820191906000526020600020905b8154815290600101906020018083116108c957829003601f168201915b5050505050908060010180546108fb906116ae565b80601f0160208091040260200160405190810160405280929190818152602001828054610927906116ae565b80156109745780601f1061094957610100808354040283529160200191610974565b820191906000526020600020905b81548152906001019060200180831161095757829003601f168201915b5050505050905082565b6000808360405161098f9190611338565b908152602001604051809103902060000180546109ab906116ae565b9050146109ed576040517f08c379a00000000000000000000000000000000000000000000000000000000081526004016109e4906113d2565b60405180910390fd5b6040518060600160405280838152602001828152602001600067ffffffffffffffff811115610a45577f4e487b7100000000000000000000000000000000000000000000000000000000600052604160045260246000fd5b604051908082528060200260200182016040528015610a735781602001602082028036833780820191505090505b50815250600083604051610a879190611338565b90815260200160405180910390206000820151816000019080519060200190610ab1929190610c9c565b506020820151816001019080519060200190610ace929190610c9c565b506040820151816002019080519060200190610aeb929190610d22565b509050505050565b60008087604051610b049190611338565b90815260200160405180910390206000018054610b20906116ae565b90501415610b63576040517f08c379a0000000000000000000000000000000000000000000000000000000008152600401610b5a90611412565b60405180910390fd5b60026000815480929190610b76906116e0565b91905055506040518060c00160405280600254815260200186815260200185815260200184815260200183815260200182815250600160006002548152602001908152602001600020600082015181600001556020820151816001019080519060200190610be5929190610c9c565b506040820151816002019080519060200190610c02929190610c9c565b50606082015181600301556080820151816004019080519060200190610c29929190610c9c565b5060a0820151816005019080519060200190610c46929190610d6f565b50905050600086604051610c5a9190611338565b90815260200160405180910390206002016002549080600181540180825580915050600190039060005260206000200160009091909190915055505050505050565b828054610ca8906116ae565b90600052602060002090601f016020900481019282610cca5760008555610d11565b82601f10610ce357805160ff1916838001178555610d11565b82800160010185558215610d11579182015b82811115610d10578251825591602001919060010190610cf5565b5b509050610d1e9190610dbc565b5090565b828054828255906000526020600020908101928215610d5e579160200282015b82811115610d5d578251825591602001919060010190610d42565b5b509050610d6b9190610dbc565b5090565b828054828255906000526020600020908101928215610dab579160200282015b82811115610daa578251825591602001919060010190610d8f565b5b509050610db89190610dd9565b5090565b5b80821115610dd5576000816000905550600101610dbd565b5090565b5b80821115610df2576000816000905550600101610dda565b5090565b6000610e09610e0484611563565b611532565b90508083825260208201905082856020860282011115610e2857600080fd5b60005b85811015610e585781610e3e8882610eca565b845260208401935060208301925050600181019050610e2b565b5050509392505050565b6000610e75610e708461158f565b611532565b905082815260208101848484011115610e8d57600080fd5b610e9884828561166c565b509392505050565b600082601f830112610eb157600080fd5b8135610ec1848260208601610df6565b91505092915050565b600081359050610ed9816117c7565b92915050565b600082601f830112610ef057600080fd5b8135610f00848260208601610e62565b91505092915050565b600081359050610f18816117de565b92915050565b600060208284031215610f3057600080fd5b600082013567ffffffffffffffff811115610f4a57600080fd5b610f5684828501610edf565b91505092915050565b60008060408385031215610f7257600080fd5b600083013567ffffffffffffffff811115610f8c57600080fd5b610f9885828601610edf565b925050602083013567ffffffffffffffff811115610fb557600080fd5b610fc185828601610edf565b9150509250929050565b60008060008060008060c08789031215610fe457600080fd5b600087013567ffffffffffffffff811115610ffe57600080fd5b61100a89828a01610edf565b965050602087013567ffffffffffffffff81111561102757600080fd5b61103389828a01610edf565b955050604087013567ffffffffffffffff81111561105057600080fd5b61105c89828a01610edf565b945050606061106d89828a01610f09565b935050608087013567ffffffffffffffff81111561108a57600080fd5b61109689828a01610edf565b92505060a087013567ffffffffffffffff8111156110b357600080fd5b6110bf89828a01610ea0565b9150509295509295509295565b6000602082840312156110de57600080fd5b60006110ec84828501610f09565b91505092915050565b600061110183836111e1565b60208301905092915050565b6000611119838361131a565b60208301905092915050565b6000611130826115df565b61113a818561161a565b9350611145836115bf565b8060005b8381101561117657815161115d88826110f5565b975061116883611600565b925050600181019050611149565b5085935050505092915050565b600061118e826115ea565b611198818561162b565b93506111a3836115cf565b8060005b838110156111d45781516111bb888261110d565b97506111c68361160d565b9250506001810190506111a7565b5085935050505092915050565b6111ea81611658565b82525050565b60006111fb826115f5565b611205818561163c565b935061121581856020860161167b565b61121e816117b6565b840191505092915050565b6000611234826115f5565b61123e818561164d565b935061124e81856020860161167b565b80840191505092915050565b600061126760138361163c565b91507f5573657220616c726561647920657869737473000000000000000000000000006000830152602082019050919050565b60006112a760138361163c565b91507f506f737420646f6573206e6f74206578697374000000000000000000000000006000830152602082019050919050565b60006112e760138361163c565b91507f5573657220646f6573206e6f74206578697374000000000000000000000000006000830152602082019050919050565b61132381611662565b82525050565b61133281611662565b82525050565b60006113448284611229565b915081905092915050565b6000604082019050818103600083015261136981856111f0565b9050818103602083015261137d81846111f0565b90509392505050565b600060608201905081810360008301526113a081866111f0565b905081810360208301526113b481856111f0565b905081810360408301526113c88184611183565b9050949350505050565b600060208201905081810360008301526113eb8161125a565b9050919050565b6000602082019050818103600083015261140b8161129a565b9050919050565b6000602082019050818103600083015261142b816112da565b9050919050565b60006020820190506114476000830184611329565b92915050565b600060c0820190506114626000830189611329565b818103602083015261147481886111f0565b9050818103604083015261148881876111f0565b9050818103606083015261149c81866111f0565b90506114ab6080830185611329565b81810360a08301526114bd8184611125565b9050979650505050505050565b600060a0820190506114df6000830188611329565b81810360208301526114f181876111f0565b9050818103604083015261150581866111f0565b90506115146060830185611329565b818103608083015261152681846111f0565b90509695505050505050565b6000604051905081810181811067ffffffffffffffff8211171561155957611558611787565b5b8060405250919050565b600067ffffffffffffffff82111561157e5761157d611787565b5b602082029050602081019050919050565b600067ffffffffffffffff8211156115aa576115a9611787565b5b601f19601f8301169050602081019050919050565b6000819050602082019050919050565b6000819050602082019050919050565b600081519050919050565b600081519050919050565b600081519050919050565b6000602082019050919050565b6000602082019050919050565b600082825260208201905092915050565b600082825260208201905092915050565b600082825260208201905092915050565b600081905092915050565b6000819050919050565b6000819050919050565b82818337600083830152505050565b60005b8381101561169957808201518184015260208101905061167e565b838111156116a8576000848401525b50505050565b600060028204905060018216806116c657607f821691505b602082108114156116da576116d9611758565b5b50919050565b60006116eb82611662565b91507fffffffffffffffffffffffffffffffffffffffffffffffffffffffffffffffff82141561171e5761171d611729565b5b600182019050919050565b7f4e487b7100000000000000000000000000000000000000000000000000000000600052601160045260246000fd5b7f4e487b7100000000000000000000000000000000000000000000000000000000600052602260045260246000fd5b7f4e487b7100000000000000000000000000000000000000000000000000000000600052604160045260246000fd5b6000601f19601f8301169050919050565b6117d081611658565b81146117db57600080fd5b50565b6117e781611662565b81146117f257600080fd5b5056fea2646970667358221220ddd6ca44b65ca4857dee4d9503f3be736ddea9c62c161315b912c2439d7d523364736f6c63430008000033",
  "linkReferences": {},
  "deployedLinkReferences": {}
}